{
  "_format": "hh-sol-artifact-1",
  "contractName": "NftAuction",
  "sourceName": "contracts/BiddingContract.sol",
  "abi": [
    {
      "inputs": [
        {
          "internalType": "uint256",
          "name": "_startingPrice",
          "type": "uint256"
        },
        {
          "internalType": "uint256",
          "name": "_discountRate",
          "type": "uint256"
        },
        {
          "internalType": "address",
          "name": "_nft",
          "type": "address"
        },
        {
          "internalType": "uint256",
          "name": "_nftId",
          "type": "uint256"
        }
      ],
      "stateMutability": "nonpayable",
      "type": "constructor"
    },
    {
      "inputs": [],
      "name": "buy",
      "outputs": [],
      "stateMutability": "payable",
      "type": "function"
    },
    {
      "inputs": [],
      "name": "discountRate",
      "outputs": [
        {
          "internalType": "uint256",
          "name": "",
          "type": "uint256"
        }
      ],
      "stateMutability": "view",
      "type": "function"
    },
    {
      "inputs": [],
      "name": "expiresAt",
      "outputs": [
        {
          "internalType": "uint256",
          "name": "",
          "type": "uint256"
        }
      ],
      "stateMutability": "view",
      "type": "function"
    },
    {
      "inputs": [],
      "name": "getPrice",
      "outputs": [
        {
          "internalType": "uint256",
          "name": "",
          "type": "uint256"
        }
      ],
      "stateMutability": "view",
      "type": "function"
    },
    {
      "inputs": [],
      "name": "nft",
      "outputs": [
        {
          "internalType": "contract IERC721",
          "name": "",
          "type": "address"
        }
      ],
      "stateMutability": "view",
      "type": "function"
    },
    {
      "inputs": [],
      "name": "nftId",
      "outputs": [
        {
          "internalType": "uint256",
          "name": "",
          "type": "uint256"
        }
      ],
      "stateMutability": "view",
      "type": "function"
    },
    {
      "inputs": [],
      "name": "seller",
      "outputs": [
        {
          "internalType": "address payable",
          "name": "",
          "type": "address"
        }
      ],
      "stateMutability": "view",
      "type": "function"
    },
    {
      "inputs": [],
      "name": "startAt",
      "outputs": [
        {
          "internalType": "uint256",
          "name": "",
          "type": "uint256"
        }
      ],
      "stateMutability": "view",
      "type": "function"
    },
    {
      "inputs": [],
      "name": "startingPrice",
      "outputs": [
        {
          "internalType": "uint256",
          "name": "",
          "type": "uint256"
        }
      ],
      "stateMutability": "view",
      "type": "function"
    }
  ],
  "bytecode": "0x60806040523480156200001157600080fd5b5060405162000b3d38038062000b3d8339818101604052810190620000379190620001f0565b33600260006101000a81548173ffffffffffffffffffffffffffffffffffffffff021916908373ffffffffffffffffffffffffffffffffffffffff16021790555083600381905550826004819055504260058190555062093a80426200009e919062000291565b60068190555062093a8083620000b5919062000291565b841015620000fa576040517f08c379a0000000000000000000000000000000000000000000000000000000008152600401620000f1906200032d565b60405180910390fd5b816000806101000a81548173ffffffffffffffffffffffffffffffffffffffff021916908373ffffffffffffffffffffffffffffffffffffffff16021790555080600181905550505050506200034f565b600080fd5b6000819050919050565b620001658162000150565b81146200017157600080fd5b50565b60008151905062000185816200015a565b92915050565b600073ffffffffffffffffffffffffffffffffffffffff82169050919050565b6000620001b8826200018b565b9050919050565b620001ca81620001ab565b8114620001d657600080fd5b50565b600081519050620001ea81620001bf565b92915050565b600080600080608085870312156200020d576200020c6200014b565b5b60006200021d8782880162000174565b9450506020620002308782880162000174565b93505060406200024387828801620001d9565b9250506060620002568782880162000174565b91505092959194509250565b7f4e487b7100000000000000000000000000000000000000000000000000000000600052601160045260246000fd5b60006200029e8262000150565b9150620002ab8362000150565b9250828201905080821115620002c657620002c562000262565b5b92915050565b600082825260208201905092915050565b7f5374617274696e6720707269636520697320746f6f206c6f7700000000000000600082015250565b600062000315601983620002cc565b91506200032282620002dd565b602082019050919050565b60006020820190508181036000830152620003488162000306565b9050919050565b6107de806200035f6000396000f3fe6080604052600436106100865760003560e01c8063a6f2ae3a11610059578063a6f2ae3a14610137578063c6bc518214610141578063c74465651461016c578063d6fbf20214610197578063e6c0e6d5146101c257610086565b806308551a531461008b57806347ccca02146100b65780638622a689146100e157806398d5fdca1461010c575b600080fd5b34801561009757600080fd5b506100a06101ed565b6040516100ad91906104b2565b60405180910390f35b3480156100c257600080fd5b506100cb610213565b6040516100d8919061052c565b60405180910390f35b3480156100ed57600080fd5b506100f6610237565b6040516101039190610560565b60405180910390f35b34801561011857600080fd5b5061012161023d565b60405161012e9190610560565b60405180910390f35b61013f610277565b005b34801561014d57600080fd5b50610156610459565b6040516101639190610560565b60405180910390f35b34801561017857600080fd5b5061018161045f565b60405161018e9190610560565b60405180910390f35b3480156101a357600080fd5b506101ac610465565b6040516101b99190610560565b60405180910390f35b3480156101ce57600080fd5b506101d761046b565b6040516101e49190610560565b60405180910390f35b600260009054906101000a900473ffffffffffffffffffffffffffffffffffffffff1681565b60008054906101000a900473ffffffffffffffffffffffffffffffffffffffff1681565b60065481565b6000806005544261024e91906105aa565b905060008160045461026091906105de565b90508060035461027091906105aa565b9250505090565b60065442106102bb576040517f08c379a00000000000000000000000000000000000000000000000000000000081526004016102b29061067d565b60405180910390fd5b60006102c561023d565b90508034101561030a576040517f08c379a00000000000000000000000000000000000000000000000000000000081526004016103019061070f565b60405180910390fd5b60008054906101000a900473ffffffffffffffffffffffffffffffffffffffff1673ffffffffffffffffffffffffffffffffffffffff166323b872dd600260009054906101000a900473ffffffffffffffffffffffffffffffffffffffff16336001546040518463ffffffff1660e01b815260040161038b93929190610771565b600060405180830381600087803b1580156103a557600080fd5b505af11580156103b9573d6000803e3d6000fd5b50505050600081346103cb91906105aa565b9050600081111561041e573373ffffffffffffffffffffffffffffffffffffffff166108fc829081150290604051600060405180830381858888f1935050505015801561041c573d6000803e3d6000fd5b505b600260009054906101000a900473ffffffffffffffffffffffffffffffffffffffff1673ffffffffffffffffffffffffffffffffffffffff16ff5b60015481565b60055481565b60035481565b60045481565b600073ffffffffffffffffffffffffffffffffffffffff82169050919050565b600061049c82610471565b9050919050565b6104ac81610491565b82525050565b60006020820190506104c760008301846104a3565b92915050565b6000819050919050565b60006104f26104ed6104e884610471565b6104cd565b610471565b9050919050565b6000610504826104d7565b9050919050565b6000610516826104f9565b9050919050565b6105268161050b565b82525050565b6000602082019050610541600083018461051d565b92915050565b6000819050919050565b61055a81610547565b82525050565b60006020820190506105756000830184610551565b92915050565b7f4e487b7100000000000000000000000000000000000000000000000000000000600052601160045260246000fd5b60006105b582610547565b91506105c083610547565b92508282039050818111156105d8576105d761057b565b5b92915050565b60006105e982610547565b91506105f483610547565b925082820261060281610547565b915082820484148315176106195761061861057b565b5b5092915050565b600082825260208201905092915050565b7f54686973206e66742062696464696e672068617320656e646564000000000000600082015250565b6000610667601a83610620565b915061067282610631565b602082019050919050565b600060208201905081810360008301526106968161065a565b9050919050565b7f54686520616d6f756e74206f66204554482073656e64206973206c657373207460008201527f68656e20746865207072696365206f6620546f6b656e00000000000000000000602082015250565b60006106f9603683610620565b91506107048261069d565b604082019050919050565b60006020820190508181036000830152610728816106ec565b9050919050565b600061073a826104f9565b9050919050565b61074a8161072f565b82525050565b600061075b82610471565b9050919050565b61076b81610750565b82525050565b60006060820190506107866000830186610741565b6107936020830185610762565b6107a06040830184610551565b94935050505056fea2646970667358221220e01470b71c8cca6394a3efce7f0c7e3723af6e3492a39620e3ac29606b59669464736f6c63430008110033",
  "linkReferences": {},
  "deployedLinkReferences": {}
}